:020000040800F2
:10000000B89F002015D900081DD900081FD9000885
:1000100021D9000823D9000825D9000800000000D4
:1000200000000000000000000000000027D90008C8
:1000300029D90008000000002BD900082DD900089C
:100040002FD900082FD900082FD900082FD9000870
:100050002FD900082FD900082FD900082FD9000860
:100060002FD900082FD900082FD900082FD9000850
:100070002FD900082FD900082FD900082FD9000840
:100080002FD900082FD900082FD900082FD9000830
:100090002FD900082FD900082FD900082FD9000820
:1000A0002FD900082FD900082FD900082FD9000810
:1000B0002FD900082FD90008F5AF00082FD9000864
:1000C0002FD900082FD900082FD900082FD90008F0
:1000D0002FD90008FBA800082FD900082FD9000845
:1000E000951600082FD900082FD900082FD900082D
:1000F0002FD900082FD900082FD900082FD90008C0
:100100002FD900082FD90008C98300082FD900086B
:100110002FD900082FD900082FD900082FD900089F
:100120002FD900082FD900082FD900082FD900088F
:1001300000F002F800F06BF80AA090E8000C82448E
:100140008344AAF10107DA4501D100F060F8AFF26B
:10015000090EBAE80F0013F0010F18BFFB1A43F0A5
:10016000010318472CB903004CB903000A444FF0AF
:10017000000C10F8013B13F0070408BF10F8014B06
:100180001D1108BF10F8015B641E05D010F8016B4B
:10019000641E01F8016BF9D113F0080F1EBF10F8AF
:1001A000014BAD1C0C1B09D16D1E58BF01F801CBD2
:1001B000FAD505E014F8016B01F8016B6D1EF9D555
:1001C0009142D6D37047000000230024002500266A
:1001D000103A28BF78C1FBD8520728BF30C148BFAA
:1001E0000B60704764290DF0038575290DF00085BB
:1001F00078290DF0398563290DF0088773290DF0F2
:100200000D87002070471FB51FBD10B510BD0DF044
:100210003FFF1146FFF7F7FF00F0F5F80DF05DFF27
:1002200003B4FFF7F2FF03BC0AF00CFBF0B591B08A
:1002300005460026294608A803F0EDF9044640F2D9
:10024000FF100790079807F081F9069004BB069805
:10025000F0B11BE0694608A803F02CFA044614B973
:100260009DF8090000B912E00698007808B10698D8
:1002700001E00DF109000746384601F031F9044666
:1002800004F0F000502801D1701C86B2E2E700BFF4
:10029000304611B0F0BD70B5FE480078022866D136
:1002A000042005F0F8FE0021084605F00AFC05F0E0
:1002B000E0FB0020F8490860F849C1F89001F649D0
:1002C0002839086001200860002008600120F249F8
:1002D0001C390860F04928390860002531E04FF0EA
:1002E0008830EF4908600020EB4928390860EC4865
:1002F00008300068C4B20120E849C1F884014FF613
:10030000FF7000EA04240020C1F88401E4480830AA
:100310000068C0B204430120DF49283908604FF06B
:100320003330DF4908608815DE49086140004861C4
:10033000DB480C300460802048610861800008615F
:100340006D1CB5F5963FCAD30120D3490860002043
:10035000D249C1F884010120CF4928390860C0037F
:10036000D14908600020CB49087005F094FE70BDAB
:100370001CB54FF47840CD49088018E0CCA010217E
:10038000C8231A46CDE9001096213C2006F0DCFF78
:10039000C82000F09EFF4FF6FF70A623EF229621A3
:1003A00000903C2006F022FDC82000F092FF07F0EC
:1003B000B5FC0028E2D1C2A01021C8231A46CDE91D
:1003C000001096213C2006F0BFFF40F2DC5000F008
:1003D00080FF01F086F94FF4A073F022AE210A20CD
:1003E00007F0D9FD0020AC4908600BE0FFF753FF90
:1003F000A9480C38006808B9012000E00020A6498F
:100400000C390860F2E72DE9F04F97B04FF0000B80
:1004100000F022FF4FF4A0600BF068FB4FF4165081
:100420000AF01FFA06F081FB07F078FCA84908687B
:10043000804706F0BDFF05F035FAA6484168482020
:10044000884706F0F4FF01F015F80122A2A1A348A5
:10045000006802F06CFC4FF4784094490880A0A03A
:1004600010210B46C822CDE900105A213C2006F08D
:100470006BFFA0A010210B46C822CDE900106E2111
:100480003C2006F061FF9EA010210B46C822CDE95A
:10049000001082213C2006F057FF18E09FA0102199
:1004A0000B46C822CDE9001096213C2006F04CFFF7
:1004B000C82000F00EFF4FF6FF70BA23F022AA21E9
:1004C00000903C2006F092FCC82000F002FF97A1AB
:1004D0000EA803F0A0F80028E0D100BF93A0FFF71A
:1004E000A5FE054618E094A010210B46C822CDE9D0
:1004F000001096213C2006F027FFC82000F0E9FEFE
:100500004FF47840BA23F022AA2100903C2006F054
:100510006DFCC82000F0DDFE002DE4D040F2FF109D
:100520000D900D9807F012F80C900D9807F00EF84A
:100530008046680007F00AF8074617E081A01021FE
:100540000B46C822CDE9001096213C2006F0FCFEA7
:10055000C82000F0BEFE1F20BA23F022AA2100907E
:100560003C2006F043FCC82000F0B3FE0C980028A5
:10057000E4D0B8F1000FE1D0002FDFD06BA10EA8BE
:1005800003F049F806462EBB002421E0BDF83E00EA
:10059000039006A90EA803F08DF8064616B99DF83B
:1005A000210000B915E00C98007808B10C9801E022
:1005B0000DF121000590059800F092FF064606F027
:1005C000F000502804D1039827F81400601C84B26E
:1005D000DCE700BF40F2DC5000F07BFE07F056FD88
:1005E000B9F1000F01D04C4600E000244FA10EA845
:1005F00003F011F806460EE137F814100EA801F0CA
:1006000062FB06A90EA803F055F8064616B99DF838
:10061000210000B902E10C98007808B10C9801E0C3
:100620000DF1210005904BA140460DF00DFC404618
:1006300005990DF02DFC002006F03AFA01214848FA
:100640004088CDE900014648038800221146404613
:1006500007F0E6FD00200490DAE042A010210B46EE
:10066000C822CDE900101421084606F06DFE0020D6
:1006700005F041F9824616484168002088470498F1
:10068000FA2801DD4FF0010A1421049890FBF1F2E1
:100690006AE0000054010020AC0121420000214228
:1006A000000C0140001001401404014064010020CE
:1006B0004F5637363730204572726F722121000055
:1006C0004F563736373020496E6974204F4B000043
:1006D0009801002050020020303A00003C01002028
:1006E0004B4559303A4E455854204B4559313A50B4
:1006F00052455600574B5F55503A504155534500AF
:10070000546F756368207570706572206C656674CF
:1007100020746F2064656C65746500005344204349
:10072000617264204572726F72210000303A2F505E
:1007300049435455524500004E4F205049435455AB
:10074000524500004D656D6F7279204572726F726F
:1007500021000000303A2F504943545552452F0094
:100760006C03002044454C0001FB120038B93248AC
:10077000006808B9012000E000202F490860BAF1A4
:10078000020F06D114B1601E84B201E0681E84B26B
:100790003FE0BAF1010F05D1601C84B2AC4200DB2E
:1007A000002436E0BAF1030F0ED1BBF1000F01D1E6
:1007B000012000E000208346BBF1000F01D10120A1
:1007C00000E000201D490860BBF1000F03D1049830
:1007D000401CC0B204901A4890F8200000F080003D
:1007E00098B11748808932280FDA1548C08A28281E
:1007F0000BDA404603F09EF812A00DF09DF94FF47D
:100800007A7000F066FDA14668E60A2000F061FDFE
:1008100023E700BF0026002E3FF4EEAE00BF0C9889
:1008200006F088FE404606F085FE384606F082FE59
:10083000002017B0BDE8F08FA0012142888122423C
:100840009801002044656C617465640A0000000032
:1008500010B507F037F910BD70B50446002607F053
:100860004BF92546E11704EB11610912A02202EBB6
:100870004101C8B207F0EEF907F07FF9E11704EB88
:1008800011610912A4EB0121C8B207F0E3F907F0E6
:1008900074F907F031F9A12007F0DCF907F06DF9E0
:1008A000002007F004FA064607F048F9304670BD0C
:1008B00070B504460E4607F01FF92546E11704EB14
:1008C00011610912A02202EB4101C8B207F0C2F97E
:1008D00007F053F9E11704EB11610912A4EB0121B0
:1008E000C8B207F0B7F907F048F9304607F0B2F997
:1008F00007F043F907F022F90A2000F0EAFC70BD86
:100900002DE9F04105460E461746002409E0E200B5
:1009100026FA02F2D1B22A1990B2FFF7C9FF601C81
:10092000C4B2BC42F3DBBDE8F0812DE9F0410746DB
:100930000C460026002509E036023919491B491EDC
:1009400088B2FFF789FF0644681CC5B2A542F3DBF5
:100950003046BDE8F08110B5FF20FFF77DFF04466B
:10096000552C01D1002010BD5521FF20FFF7A0FF1D
:10097000FF20FFF771FF0446552C01D10020F2E75C
:100980000120F0E770B506460C46154608E03046F3
:10099000721C96B2FFF760FF04F8010B681E85B267
:1009A000002DF4D170BD70B505460C46164606E024
:1009B00021782846FFF77CFF681C85B2641C300054
:1009C000A6F101018EB2F3D170BD00002DE9F14F07
:1009D0008CB0002008900790069001200590C0027E
:1009E000039000200290039807F07BFC06461EB996
:1009F00011200DB0BDE8F08F4FF40A7007F071FCC4
:100A00000B900B9820B9304607F071FC1120F0E7ED
:100A10000122DDE90B0102F0B5F9049004980028E9
:100A200074D10AAB3146039A0B9802F06BFAB246C6
:100A30005646BAF80A0084B2BAF81C00C11700EB97
:100A40005171C1F3C7089AF81E000290DAF8160037
:100A5000F8498860DAF81200486007F04BFBF54867
:100A6000007900FB08F000F0030060B1F148406835
:100A700000FB08F0012101EB90004FF6FF7101EA45
:100A80008000019005E0EB48808800FB08F080B210
:100A90000190002700200990E64800891FFA80FB9A
:100AA000B946E448C06800FB0BF0C0F34F30069035
:100AB0003546E2E0C5E0B8F1030F1DD1B9F1000FF2
:100AC00006D0B9F1010F06D0B9F1020F13D10AE037
:100AD000285DC7100FE0285D4FF4FC6101EAC000FB
:100AE000384487B207E0285D4FF4784101EA0020DE
:100AF000384487B200BF4AE0B8F1020F21D1B9F102
:100B0000000F04D0B9F1010F1AD10DE0BAE002983C
:100B100040B9285D00F01F07285D00F0E00007EBFA
:100B2000400700E02F5D0BE0029820B9285D07EB3D
:100B3000402087B203E0285D07EB002087B200BFAA
:100B400025E0B8F1040F21D1B9F1000F09D0B9F1B6
:100B5000010F09D0B9F1020F0ED0B9F1030F14D172
:100B600012E0285DC71010E0285D4FF4FC6101EA37
:100B7000C000384487B208E0285D4FF4784101EAAC
:100B80000020384487B200E000BF00E000BF09F158
:100B9000010000F0FF09601C84B2C1452AD1A548BC
:100BA0004168099881421FD9A248C0680999484301
:100BB000C0F34F3007900122DDE9061007F01EFB5D
:100BC00090B1059880B19B4AB2F81CC0069A624465
:100BD000521E91B2974AB2F818C0079A624490B276
:100BE000954A53683A4698470998401C80B2099044
:100BF0000027B9460898401C80B2089001990898CF
:100C000088421EDBABF101001FFA80FBBBF1000F35
:100C100000D11AE08748C06800FB0BF0C0F34F30EA
:100C200006900022DDE9061007F0E8FA10B1012075
:100C3000059001E000200590002009900890002711
:100C4000814603988442FFF636AF00BF0AAB3146B7
:100C5000039A0B9802F056F90490BDF828100398F7
:100C6000814202D0BDF828000390049810B9BDF865
:100C7000280000B902E0354600241BE700BF0B98AE
:100C800002F072FB304607F032FB0B9807F02FFBA7
:100C90000498AEE62DE9FF4F8FB08B464FF400600D
:100CA0000A90002009900690FF2003901E98801162
:100CB000029060491C980861129848610A9807F0F0
:100CC00010FB8046B8F1000F03D1112013B0BDE82E
:100CD000F08F4FF40A7007F004FB0E900E9820B9C5
:100CE000404607F004FB1120F0E70122DDE90E0188
:100CF00002F048F80C900C9800287CD10DAB4222F1
:100D000041460E9802F0FEF8CDF80480DDF804802C
:100D1000B8F81C00C11700EB5171C1F3C709DDF829
:100D2000048098F81E000990DDF80480D8F81600B9
:100D300040498860DDF80480D8F812004860084611
:100D4000007900FB09F000F0030060B1084640683C
:100D500000FB09F0012101EB90004FF6FF7101EA61
:100D60008000079005E03348808800FB09F080B2DE
:100D7000079030484168079801FB1900C0B2059000
:100D8000002600252B480089401E87B2294840686C
:100D90002849496988427DD82648806825490969DB
:100DA0008842F8D82348406922494968401A0BEB29
:100DB00050001FFA80FB1F4800691E498968411ACC
:100DC000119800EB510080B2119007990A9890FB9E
:100DD000F1F080B20890DDE90710484380B20A9034
:100DE0001448808880B206900198D0F80A100E98B6
:100DF00002F0CAFA26E12BE10DAB41460A9A0E98A1
:100E000002F080F80C904446BDF834100A988142F4
:100E100006D0BDF83410079891FBF0F080B208902E
:100E2000B9F1030F3FD100200B9037E04FF0000ADB
:100E300026E000003C9800206498002014F8011B74
:100E4000CE1014F8011B4FF4FC6000EAC100064408
:100E500014F8011B4FF4784000EA0120304486B2B8
:100E6000119A3A4491B20BEB050290B2F74A5368DB
:100E700032469847681C85B20AF101001FFA80FAD1
:100E800006988245DADB059804440025781E87B26F
:100E90000B9800E0D8E0401C80B20B9008990B98AA
:100EA0008842C3DBC6E0B9F1020F54D100200B9099
:100EB0004CE0099820BB4FF0000A1DE0207800F0BC
:100EC0001F0614F8011B01F0E00006EB400614F8C1
:100ED000011B06EB412086B2119A3A4491B20BEB0A
:100EE000050290B2D94A536832469847681C85B2C9
:100EF0000AF101001FFA80FA06988245DEDB1CE049
:100F00004FF0000A16E014F8016B14F8011B06EB11
:100F1000012086B2119A3A4491B20BEB050290B2CD
:100F2000CA4A536832469847681C85B20AF10100E4
:100F30001FFA80FA06988245E5DB059804440025EF
:100F4000781E87B20B98401C80B20B9008990B98C2
:100F50008842AEDB6EE0B9F1040F6BD100200B903C
:100F600064E04FF0000A55E014F8011BCE1014F8AD
:100F7000011B4FF4FC6000EAC100064414F8011B99
:100F80004FF4784000EA0120304486B214F8010B97
:100F900003900298012821D0119B3B4499B20BEB9E
:100FA000050398B2A94B1A6890470490029802284A
:100FB00007D11E9800F01F021D99049807F085F8CC
:100FC00004900398C117009000EB5170C0F3C70262
:100FD0003146049807F079F806460BE00398C117EC
:100FE000009000EB5170C0F3C70231461D9807F026
:100FF0006CF80490119A3A4491B20BEB050290B24E
:10100000924A536832469847681C85B20AF101003B
:101010001FFA80FA06988245A6DB0598044400254D
:10102000781E87B20B98401C80B20B9008990B98E1
:10103000884296DBBDF834100A98814201D10C98A1
:1010400000B100E0D8E600BF0E9802F08DF901E093
:1010500028200C90404607F04AF90E9807F047F90F
:101060000C9833E62DE9FF4F95B08A4693461F460C
:10107000DDF888800020029017B1B8F1000F03D18D
:10108000292019B0BDE8F08F0AEB0700401E704917
:101090000988884201DD2920F3E70BEB0800401E98
:1010A0006B494988884201DD2920EAE74FF48060D6
:1010B00007F017F904460CB91120E2E74FF40A7063
:1010C00007F00FF91490149820B9204607F00FF993
:1010D0001120D6E74FF042094222002103A806F072
:1010E0009CF92820CDF81A00CDF81E70CDF822808A
:1010F0000121ADF826101021ADF828100321CDF8FC
:101100002A10DDF82210DDF81E205143BDF82820FA
:1011100001FB02F0C11700EB5171CA10CDF82E206F
:1011200044F64250ADF80C00DDF82E004844CDF8EE
:101130000E00CDF816904FF47840CDF842004FF4F1
:10114000FC61CDF846101F21CDF84A1023980128E4
:1011500005D10322DDE9140101F014FE0290239869
:1011600010B10298042805D10622DDE9140101F02E
:1011700009FE0290DDF81E104800C11700EB9171C6
:101180008910A0EB810161B1DDF81E104800C11784
:1011900000EB91718910491C4FF6FF7202EA81063B
:1011A00005E0DDF81E004FF6FF7101EA40060298E7
:1011B000F0BB284B4A4603A9149801F084FF029023
:1011C0000BEB0800401E80B200902DE00025CDF80A
:1011D00004A014E0DDF81E00A84206DDDDE90010E1
:1011E00004F04DFE24F8150003E04FF6FF7024F8DC
:1011F0001500681C85B20198401C80B2019006EB76
:10120000D671B5EB610FE5D1DDF82200401ECDF8B7
:101210002200104B32462146149801F054FF0290F0
:101220000098401E80B20090DDF82200002800E007
:1012300003E0CBD1149802F097F8204607F057F856
:10124000149807F054F802981BE7000064980020F7
:101250006C0300204C01002010B56FF004000AF070
:1012600094FC2E4800682E49B0FBF1F02D4908701F
:101270000846007800EB4001C1EBC0104FF6FF714B
:1012800001EAC0002849088010BD0146254A1278AD
:101290004A434FF0E0235A6100229A611A461269CC
:1012A00042F001021A6100BF4FF0E022106900F025
:1012B00001021AB100F48032002AF5D04FF0E0228A
:1012C000126922F001024FF0E0231A6100229A61B4
:1012D00070470146144A12884A434FF0E0235A618E
:1012E00000229A611A46126942F001021A6100BF97
:1012F0004FF0E022106900F001021AB100F48032D0
:10130000002AF5D04FF0E022126922F001024FF0DE
:10131000E0231A6100229A61704700005803002000
:1013200000127A00000000200200002070B5044680
:1013300000255CB906F07FFA054635B106F036F9AE
:10134000FF2006F02DF906F036F901E0012500BF77
:1013500000BF0DB1012070BD0020FCE70146002058
:1013600070472DE9F04105460E4617461C464FF0E2
:10137000000814B90420BDE8F08185B9E2B239460D
:10138000304606F01FFB8046B8F1000F06D006F08D
:101390000DF9FF2006F004F906F00DF902E04FF018
:1013A000010800BF00BFB8F1000F01D10020E2E743
:1013B0000120E0E72DE9F04105460E4617461C46A0
:1013C0004FF0000814B90420BDE8F08135B9E2B24D
:1013D0003946304606F02EFB804602E04FF0010809
:1013E00000BF00BFB8F1000F01D10020ECE70120E1
:1013F000EAE72DE9F04106460F4615462EBB37B108
:10140000012F1AD0022F0FD0032F1BD111E0002083
:101410001749086006F0F8F808B9002400E0012434
:101420000120134908600FE04FF400702880002469
:101430000AE008202880002406E006F0C1F92860B0
:10144000002401E0042400BF00E001242046BDE8A0
:10145000F0810020704710B50446204606F076F86B
:1014600010BD10B50446204606F064F810BD00001B
:101470008C01214210B54FF40C7006F067F85A4900
:1014800008604FF40A7006F061F8584908604FF49C
:101490000A7006F05BF8564908604FF4007006F0D9
:1014A00055F8544908605048006850B14F480068EA
:1014B00038B14F48006820B10846006808B10020E4
:1014C00010BD0120FCE70146412901DA08467047BA
:1014D000612903DBA1F12000C0B2F8E70846F6E776
:1014E0002DE9FC4105460027002405E0601CC4B23C
:1014F000287800B902E06D1CFA2CF7DB00BFFA2C4B
:1015000002D1FF20BDE8FC81002408E06D1E287890
:101510002E2802D16D1C2F4603E0601CC4B2052C9E
:10152000F4DB00BF394668460CF08EFC002407E06F
:101530001DF80400FFF7C7FF0DF80400601CC4B2DB
:10154000042CF5DB002425E000261EE004EB8400DB
:1015500000EBC400284901EB800050F82600007819
:1015600000B914E004EB840101EBC401224A02EB50
:10157000810151F8260069460CF096FC18B946EA3C
:101580000410C0B2BEE7701CC6B20D2EDEDB00BF79
:10159000601CC4B2062CD7DBFF20B3E72DE9FC4763
:1015A00007460C461546002000908046814601AA59
:1015B0006946384602F0E1F806468EB9019840695E
:1015C000801E0199897800FB01F9019880780099C3
:1015D00000FB01F84FEA590020604FEA58002860EC
:1015E0003046BDE8FC8700003C010020400100209F
:1015F0004401002050010020040000200EB501210C
:1016000008460AF08BFE052102200AF0E1FC2020AA
:10161000019000208DF808000C208DF809000120B1
:101620008DF80A0001A80AF0DDFA0F2100200AF067
:10163000CFFC4FF40040019000208DF808000C20F2
:101640008DF8090001208DF80A0001A80AF0CAFAF5
:10165000002108460AF0BCFC0120019000208DF812
:10166000080008208DF8090001208DF80A0001A863
:101670000AF0B8FA28208DF8000002208DF8010049
:1016800000208DF8020001208DF8030068460AF062
:1016900032FA0EBD10B54FF400400AF009FB0128E4
:1016A0001AD12D480078022816DA2B48007850B954
:1016B00000202A49086001202949C1F880012749F2
:1016C0003031086003E000202449303108602248AE
:1016D0000078401C204908704FF400400AF0F9FAE5
:1016E00010BD1FB5012105200AF018FE01211D487B
:1016F0000AF029FC4FF40040ADF80C0048208DF8AA
:101700000F0003A918480AF04DFB4FF4004116489A
:101710000AF0F5FB0F2100200AF05AFC4FF40040BC
:10172000019000208DF808000C208DF809000120A0
:101730008DF80A0001A80AF055FA28208DF800005B
:1017400002208DF8010001208DF802008DF80300C1
:1017500068460AF0D0F91FBD5401002080012142E3
:1017600000002142000230000008014070B503462D
:101770000C4603E014F8015B03F8015B1500A2F1CD
:101780000102F7D170BD30B5034601E003F8011B3B
:101790001400A2F10102F9D130BDF0B503461C4698
:1017A0000D46002000BF1600A2F1010207D014F878
:1017B000017B15F801CBA7EB0C063000F3D0F0BD90
:1017C000024600E0521C107810B110788842F9D11E
:1017D0001078704770B504462079F8B1E56A6078F2
:1017E00001232A4604F13001FFF7E4FD08B101208E
:1017F00070BD00202071206A281AA16988420DD28C
:10180000E67809E0A0690544607801232A4604F1DE
:101810003001FFF7CFFD761E022EF3D20020E7E75E
:1018200070B504460D46E06AA84210D02046FFF786
:10183000D1FF08B1012070BD607801232A4604F170
:101840003001FFF78EFD08B10120F4E7E5620020CA
:10185000F1E770B504462046FFF7BCFF0546002DB2
:1018600059D1207803284FD1607901284CD1420208
:10187000002104F13000FFF786FF552184F82E1275
:10188000AA2184F82F12522084F8300052213120EE
:10189000015561213220015541213320015572212A
:1018A00084F8141284F81512412184F8161261216B
:1018B00084F81712217C84F81812208A010A84F80F
:1018C00019122069010C84F81A122069010E84F89B
:1018D0001B12217B84F81C12A089010A84F81D12B6
:1018E000E068010C84F81E12E068010E84F81F12F3
:1018F000E069401CE0626078012304F13001E26A93
:10190000FFF758FD00206071607800221146FFF754
:1019100070FD00B10125284670BD0246891E506940
:10192000801E884201D8002070479378906A01FB9E
:101930000300F9E72DE9F04105460C46022C02D3DD
:101940006869A04202D80120BDE8F081287801280A
:1019500004D002282CD003285AD13DE0274607EBBB
:101960005707286A00EB57212846FFF759FF00B1B7
:1019700050E0C7F3080105F1300010F801807F1C2A
:10198000286A00EB57212846FFF74AFF00B141E0E3
:10199000C7F3080105F13000405C48EA002804F074
:1019A000010010B14FEA1810CEE7C8F30B00CBE7E7
:1019B000286A00EB14212846FFF732FF00B129E026
:1019C00040F2FF1000EA440105F130000E183078B3
:1019D000717840EA0120B7E7286A00EBD411284665
:1019E000FFF71EFF00B115E040F2FF1000EA84018E
:1019F00005F130000E18F0780006B17840EA014099
:101A0000717840EA01203178084320F070409BE76C
:101A1000012099E700BF4FF0FF3095E72DE9F0472F
:101A200005460E461746022E02D36869B04202D818
:101A30004FF002088AE02878012804D0022841D01B
:101A400003287DD154E0B14609EB5909286A00EB1F
:101A500059212846FFF7E4FE8046B8F1000F00D078
:101A600071E0C9F3080105F130000C1806F001001F
:101A700020B1F9B2207861F31F1000E038462070E1
:101A800009F1010901202871286A00EB5921284633
:101A9000FFF7C6FE8046B8F1000F00D053E0C9F34F
:101AA000080105F130000C1806F0010010B1C7F371
:101AB000071005E0207800F0F000C7F30321084389
:101AC000207040E0286A00EB16212846FFF7A8FEA8
:101AD0008046B8F1000F00D035E040F2FF1000EA78
:101AE000460105F130000C182770380A60702AE0B2
:101AF000286A00EBD6112846FFF792FE8046B8F11F
:101B0000000F00D01FE040F2FF1000EA860105F14F
:101B100030000C18E0780006A17840EA01406178B6
:101B200040EA01202178084300F070400743277005
:101B3000380A6070380CA070380EE07003E0FFE7E0
:101B40004FF0020800BF00BF012028714046BDE8E9
:101B5000F0872DE9F04104460E46022E02D360695B
:101B6000B04201D8022727E0002721E03146204675
:101B7000FFF7E0FE054605B91DE0012D01D1022762
:101B800019E0681C08B9012715E0002231462046FB
:101B9000FFF744FF074607B10DE02069401C30B154
:101BA0002069401C2061607940F0010060712E4680
:101BB0006069B042DAD800BF3846BDE8F0812DE94F
:101BC000F04704468946B9F1000F06D1E76817B11E
:101BD0006069B84215D8012713E049462046FFF74F
:101BE000A9FE0646022E02D20120BDE8F087701C35
:101BF00008B93046F9E76069B04201D93046F4E7E8
:101C00004F463D4600BF6D1C6069A84204D80225BE
:101C1000BD4201D90020E8E729462046FFF78AFEA9
:101C2000064606B909E0701C08B1012E01D1304604
:101C3000DBE7BD42E7D10020D7E700BF6FF070427D
:101C400029462046FFF7EAFE8046B8F1000F08D18A
:101C5000B9F1000F05D02A4649462046FFF7DEFEBF
:101C60008046B8F1000F0BD1E5602069401C78B1C7
:101C70002069401E2061607940F00100607107E03A
:101C8000B8F1010F02D14FF0FF3000E0012005460E
:101C90002846AAE770B503460D46586A021D680A31
:101CA0001E68B678B0FBF6F400BF02CA09B900207E
:101CB00070BD8C4200D202E0641A121DF5E700BF2D
:101CC00010682044F4E72DE9F04104460E46E68012
:101CD000A568012D03D020684069A84202D80220DF
:101CE000BDE8F0812DB920680078032801D1206873
:101CF000456A45B920680089B04201D80220EFE763
:101D00002068476A1EE0206880784FEA001812E0D9
:101D100029462068FFF70EFE0546681C08B9012019
:101D2000DEE7022D03D320684069A84201D80220D3
:101D3000D6E7A6EB08064645EAD229462068FFF713
:101D4000ECFD0746E5600FB90220C9E707EB161066
:101D500020612068303006F00F0100EB4110606117
:101D60000020BDE72DE9F04104468846E088461C86
:101D7000B0B208B1206910B90420BDE8F08106F0C6
:101D80000F0000286CD12069401C2061E06828B950
:101D900020680089B04263D80420EEE7206880788C
:101DA000401E00EA161000285AD1E1682068FFF7AB
:101DB000C1FD0546012D01D80220DEE7681C08B9E7
:101DC0000120DAE720684069A84243D8B8F1000F43
:101DD00001D10420D1E7E1682068FFF7F0FE054655
:101DE0000DB90720C9E7012D01D10220C5E7681C04
:101DF00008B90120C1E72068FFF7ECFC08B1012019
:101E0000BBE7216801F130004FF400720021FFF7B9
:101E1000BAFC29462068FFF780FD2168C8620027C8
:101E20000EE00120216808712068FFF7D3FC08B19B
:101E30000120A2E72068C06A401C2168C8627F1C9C
:101E400020688078B842ECD82068C06AC01B21683E
:101E5000C86200BFE56029462068FFF75EFD20618B
:101E6000E6802068303006F00F0100EB4110606121
:101E7000002082E72DE9F04104460E46002120466D
:101E8000FFF721FF0546EDB9002700BF2169206853
:101E9000FFF7C6FC054605B113E060690078E52848
:101EA00002D06069007820B9781C0746B04201D1A1
:101EB00007E0002701212046FFF754FF0546002DCB
:101EC000E4D000BF042D00D107252846BDE8F081ED
:101ED00010B502468C7ECB7E44EA03201378032B98
:101EE00005D10C7D4B7D44EA032340EA034010BD3D
:101EF00081760B0AC3760A0C02750B0E4375704788
:101F00002DE9F04705460C46207820F04000401EA1
:101F100000EB800101EBC00600274FF0010800BF75
:101F2000FE48C05D205CFD49C95D2144497840EA16
:101F30000129B8F1000F10D0484608F063FC804634
:101F4000FF2E07D23146761C35F8110008F05AFCF6
:101F5000404508D00020BDE8F0874FF6FF7081456E
:101F600001D00020F7E7781C07460D28D8D3207849
:101F700000F0400038B1B8F1000F04D035F8160079
:101F800008B10020E7E70120E5E7F0B5034608784F
:101F900000F03F00401E00EB800707EBC002002569
:101FA000012600BFDD48405D085CDC4F7F5D0F44CB
:101FB0007F7840EA07244EB1FF2A01D30020F0BD0C
:101FC00026461046521C23F8104005E04FF6FF70DD
:101FD000844201D00020F2E7681C05460D28E1D3B9
:101FE000087800F0400030B1FF2A01D30020E6E776
:101FF000002023F812000120E1E7F0B504461D4659
:102000004D730F27CF7200270F738F76BC4681F870
:102010001BC0571E07EB870C0CEBC7060027384682
:102020003B4600BF4FF6FF77B84203D03746761CD9
:1020300034F81700DFF8E4C21CF803C001F80C0004
:102040000712DFF8D8C21CF803C08C448CF801706A
:1020500008B94FF6FF705F1C3B460D2FE2D34FF6D9
:10206000FF77B84202D034F816700FB942F0400240
:102070000A70F0BD2DE9FC4707468A4690461E4689
:102080000B2251463846FFF771FB052E18D9304612
:1020900010E038F8021B00250AE00A4660F35F02F0
:1020A0001046491000F480320AB19D4A50406D1C20
:1020B000102DF2D3B8F80020002AEAD1064600BF5E
:1020C000072500BF06F00F0000F13009B9F1390F04
:1020D00003DD09F1070000F0FF0928466D1E0DF829
:1020E00000903609002EEDD17E200DF80500002469
:1020F0000BE0385D812807DB385DFE2804DC681EB4
:10210000A04200D106E0641C641CAC4202D2385DDF
:102110002028EED100BF00BF082D04D228466D1C38
:102120001DF8001000E020212046641C3954082CC2
:10213000F2D3BDE8FC8730B5014600200B2200BF7A
:10214000431003EBC01411F8015B6319D8B2531E9E
:102150001A00F5D130BD2DE9F04704460021204694
:10216000FFF7B1FD074617B13846BDE8F0874FF0DD
:10217000FF09CA4600BF21692068FFF751FB0746E7
:1021800007B154E065692E780EB904274FE0E87A6C
:1021900000F03F08E52E05D008F0080028B1B8F19E
:1021A0000F0F02D04FF0FF093AE0B8F10F0F1CD12A
:1021B000E069A0B306F0400030B195F80DA026F01C
:1021C0004006B146E08820844E450AD1687B5045E0
:1021D00007D12946E069FFF793FE10B1A9F101008C
:1021E00000E0FF2000F0FF091AE0B9F1000F05D16F
:1021F0002846FFF7A0FF504500D118E04FF0FF0937
:102200004FF6FF702084A069C07A00F0010030B959
:102210000B222846A169FFF7C0FA00B907E0FFE7E3
:1022200000212046FFF79EFD0746002FA3D000BFE8
:1022300038469AE72DE9F05F04468A464FF0FF09D9
:10224000CB4604274EE021692068FFF7E9FA0746EC
:1022500007B14AE0666935780DB9042745E0F07AA0
:1022600000F03F08E52D09D02E2D07D0B8F1080F5A
:1022700001D1012000E00020504502D04FF0FF09BD
:1022800029E0B8F10F0F1AD105F0400030B196F8EF
:102290000DB025F04005A946E08820844D450AD1BF
:1022A000707B584507D13146E069FFF76EFE10B1EB
:1022B000A9F1010000E0FF2000F0FF090BE0B9F1F7
:1022C000000F04D13046FFF736FF584502D04FF6D5
:1022D000FF70208409E000212046FFF743FD0746F8
:1022E00007B102E020690028ADD100BF0FB1002086
:1022F00020613846BDE8F09F2DE9FE4F0446D4F832
:102300001880D4F81C900C2241466846FFF72EFA3C
:1023100000BF9DF80B0000F0010003E05AED00083B
:102320002110010020B3002088F80B00E061012695
:102330000CE033464A4669464046FFF79BFE20467E
:10234000FFF709FF054605B102E0761C642EF0D3C5
:1023500000BF642E02D10720BDE8FE8F042D01D0FE
:102360002846F9E79DF80B0088F80B00C4F81C908C
:102370009DF80B0000F0020060B1002600E0761C22
:1023800039F816000028FAD106F119000D21B0FB2A
:10239000F1F700E0012739462046FFF76BFD0546BF
:1023A00045BB781E070025D0E088C11B2046FFF7FB
:1023B0008AFC0546F5B9A069FFF7BDFE824600BF5D
:1023C00021692068FFF72CFA054605B111E0FAB241
:1023D00053466169E069FFF710FE0120216808712A
:1023E00000212046FFF7BEFC054615B9781E070000
:1023F000E6D100BFC5B921692068FFF711FA05468B
:1024000095B9202200216069FFF7BDF90B22D4E9BC
:102410000501FFF7ABF9A069C07A00F01800616907
:102420000873012021680871284695E770B50446B5
:10243000E688208C4FF6FF72904201D1304600E0D2
:10244000208C01462046FFF73EFC05460DBB00BF31
:1024500021692068FFF7E4F9054605B115E020225F
:1024600000216069FFF78FF9E5206169087001209C
:1024700021680871E088B04200D306E000212046C0
:10248000FFF770FC0546002DE2D000BF042D00D1FF
:102490000225284670BD2DE9F04707460C4604F199
:1024A00009063869002843D07869002526E02946C6
:1024B0006D1C10F80180B8F1200F00D11EE0B8F1BA
:1024C000050F01D14FF0E508092D02D12E2106F8A4
:1024D000011BB8F1410F0EDBB8F15A0F0BDC017B89
:1024E000092D01D3102200E00822114019B108F192
:1024F000200101F0FF0806F8018B00BF0B2DD6D399
:10250000C17A2172C17F0A06817F42EA0142417F7E
:1025100042EA0121027F11432160027E417E42EAAC
:102520000121A180827DC17D42EA0121E18000BFBD
:1025300000203070A06990B30025A669386958B3AF
:10254000E06948B3388C4FF6FF71884224D0D7F841
:102550001CA01BE00021484608F01AF98146B9F199
:10256000000F01D1002516E0B9F1FF0F04DD4FEA9D
:10257000292228466D1C3254E069401EA84201D829
:10258000002508E028466D1C06F800903AF8021B6A
:102590005FEA0109DED100BF0020705500BFBDE831
:1025A000F0872DE9F34F83B08146049800680190CD
:1025B00002E00198401C0190019800782F28F8D083
:1025C000019800785C28F4D0D9F81CA000252F468B
:1025D00000BF38467F1C01990C5C202C03DB2F2C9C
:1025E00001D05C2C00D132E0FF2D03D3062005B0D2
:1025F000BDE8F08FE4B2812C13DBE0B2FE2810DCE2
:1026000038467F1C01990E5C402E01DB7E2E05DDD5
:10261000802E01DBFE2E01DD0620E8E706EB04201C
:1026200084B20121204608F0B3F804460CB9062014
:10263000DDE7802C06DA2146F9A0FFF7C1F808B1E2
:102640000620D4E728466D1C2AF81040C1E700BFD9
:102650000198C11904980160202C01DA042000E0DF
:102660000020804608E0681E3AF81040202C02D076
:102670002E2C00D002E06D1E002DF4D100BF0DB94C
:102680000620B4E700202AF815000B222021D9F8F3
:102690001800FFF778F8002700E07F1C3AF81700D1
:1026A0002028FAD03AF817002E28F6D00FB148F0BB
:1026B000030800E06D1E25B1681E3AF810002E28B0
:1026C000F8D10020064602904FF0080B00BF3846B4
:1026D0007F1C3AF8104004B963E0202C03D02E2C64
:1026E00004D1AF4202D048F00308F0E70298584501
:1026F00001D2AF4214D1BBF10B0F02D148F0030855
:102700004FE0AF4201D048F00308AF4200D948E0A3
:102710002F46082002904FF00B0BB006060ED6E7AE
:10272000802C09DB204608F06DF80021009008F0AD
:102730002FF8044648F00208FF2C11DDABF1010030
:102740000299884204D848F00308CDF808B0BEE7E3
:102750002212D9F818300298411C02911A5419E03B
:1027600024B12146B1A0FFF72BF818B15F2448F03F
:1027700003080FE0412C04DB5A2C02DC46F0020671
:1027800008E0612C06DB7A2C04DC46F00106A4F19B
:10279000200084B2D9F818300298411C02911C54D0
:1027A00095E700BFD9F818000078E52803D1052087
:1027B000D9F818100870BBF1080F01D1B006060E49
:1027C00006F00C000C2803D006F00300032801D10A
:1027D00048F0020808F0020058B906F0030001288A
:1027E00001D148F0100806F00C00042801D148F08F
:1027F0000808D9F8180080F80B800020F7E62DE9CA
:10280000F3410446019800782F2803D001980078FE
:102810005C2802D10198401C01900020A060019822
:102820000078202807D200212046FFF74CFA054601
:102830000020606128E000BF01A92046FFF7B1FE3B
:10284000054605B11FE02046FFF785FC0546A06957
:10285000C67A3DB1042D04D100BF06F0040000B9D2
:10286000052510E006F0040000B10CE06769F87A75
:1028700000F0100008B9052505E039462068FFF78B
:1028800027FBA060D8E700BF2846BDE8FC8170B5F3
:1028900002464FF0FF301568E5B1116800E0491CB1
:1028A0000D78202D02D30D783A2DF8D10D783A2DE0
:1028B0000FD1146814F8015BA5F130030A2B07D27D
:1028C0008C4205D1022B03D218464D1C29461560B7
:1028D00070BD002000BFFBE770B504460D46002028
:1028E0002071401EE06229462046FEF799FF08B19C
:1028F000032070BD94F82E1294F82F0241EA0020B4
:102900004AF65521884201D00220F2E794F8690086
:10291000010694F8680041EA004194F8670041EA32
:10292000002094F86610084320F07F404149884217
:1029300001D10020DDE794F88500010694F88400B9
:1029400041EA004194F8830041EA002094F88210A3
:10295000084320F07F403749884201D10020C8E772
:102960000120C6E72DE9F74F88B0002108980160E3
:102970000998FFF78CFF07900798002803DA0B20CF
:102980000BB0BDE8F08F2C49079851F820400CB9E6
:102990000C20F5E708980460207878B16078FEF79D
:1029A000DDFC804608F0010040B90A9820B108F02B
:1029B000040008B10A20E3E70020E1E700202070CE
:1029C000079860706078FEF7B1FC804608F001005F
:1029D00008B10320D4E70A9820B108F0040008B138
:1029E0000A20CDE7002739462046FFF775FF054648
:1029F000012D01D09DB93BE0002623E004F5F771DD
:102A000001EB06100179C9B1C17A0A06817A42EA5E
:102A10000142417A42EA0121027A11430FE027E0A4
:102A2000222A3A3C3E3F7C7F000000002B2C3B3D9D
:102A30005B5D0000464154005801002000214DF824
:102A40002610761C042ED9D3002606B1761E00BFB0
:102A50005DF8267027B139462046FFF73DFF00E0BC
:102A6000022005461DB1701C06460428F0D300BFA5
:102A7000032D01D1012083E70DB10D2080E73B201C
:102A8000015D94F83C0041EA0020B0F5007F01D0E0
:102A90000D2075E74620015D94F8470041EA0029C2
:102AA000B9F1000F0ED194F85700010694F85600C2
:102AB00041EA004194F8550041EA002094F854108E
:102AC00040EA0109C4F818904020005DE070E07809
:102AD000012804D0E078022801D00D2050E7E078EA
:102AE00009FB00F93D20005DA070A07818B1A07826
:102AF000411E084008B10D2042E74120015D94F8D5
:102B0000420041EA00202081207A00F00F0008B145
:102B10000D2035E74320015D94F8440041EA002B85
:102B2000BBF1000F0ED194F85300010694F8520047
:102B300041EA004194F8510041EA002094F8501015
:102B400040EA010B3E20015D94F83F0041EA00207D
:102B50000490049808B90D2012E70498484421898C
:102B600000EB111006900698834501D20D2007E76F
:102B70000698ABEB0000A178B0FBF1FABAF1000FB8
:102B800001D10D20FCE6012540F6F670824500D308
:102B900002254FF6F670824500D303250AF10200A4
:102BA0006061E76104983844206206983844A06266
:102BB000032D16D1208908B10D20E1E694F85F00BD
:102BC000010694F85E0041EA004194F85D0041EA94
:102BD000002094F85C1008436062606980000590F2
:102BE00014E0208908B90D20CAE6206A48446062D2
:102BF000022D02D16069400007E0207D00F0010055
:102C0000616901EB410100EB51000590A169059854
:102C100000F2FF10B1EB502F01D20D20B0E64FF0C3
:102C2000FF302061E06080206071032D5AD194F85C
:102C3000601094F8610041EA0020012852D1791C0B
:102C40002046FEF7EDFDE8BB0020607194F82E12DF
:102C500094F82F0241EA00204AF65521884241D1DA
:102C60003320005D01063220005D41EA0041312041
:102C7000005D41EA002094F830100843FC49884286
:102C800030D194F81702010694F8160241EA004187
:102C900094F8150241EA002094F814120843F5490B
:102CA00088421FD194F81B02010694F81A0241EAE7
:102CB000004194F8190241EA002094F818120843E0
:102CC000206100E00EE094F81F02010694F81E0255
:102CD00041EA004194F81D0241EA002094F81C12D8
:102CE0000843E0602570E4480088401C80B2E24957
:102CF0000880E080002043E670B505462C464CB1C4
:102D0000206838B12068007820B12068C088A18888
:102D1000884201D0092070BD21684878FEF71EFB6B
:102D200000F0010008B10320F5E70020F3E7F7B554
:102D300082B016460398019001A8FFF7A8FD05464A
:102D4000002D02DA0B2005B0F0BDCC4850F825402C
:102D50000CB100202070029810B100200299087078
:102D6000C649029841F82500029808B1012E01D009
:102D70000020E8E7002203A902A8FFF7F3FD0746B9
:102D80003846E0E72DE9F7478DB0054616461DB9F0
:102D9000092010B0BDE8F0870020286006F01F066B
:102DA00026F001020EA904A8FFF7DCFD0746002F5C
:102DB00073D14FF40070FEF74EFB8146B9F1000F5E
:102DC00001D11120E5E7CDF82C9001A80A9004A8C4
:102DD0000E99FFF714FD0746099C0FB904B90627A1
:102DE00006F01C00002851D04FB1042F03D104A8D5
:102DF000FFF782FA074646F00806099C09E0E07AE8
:102E000000F0110008B1072703E006F0040000B14C
:102E10000827002F39D106F00800002835D0FEF72A
:102E200018FB804684F80E804FEA1821E1734FEAC0
:102E3000184121744FEA186161740020E072207714
:102E400000216177A177E17721460498FFF740F8E8
:102E5000824600212046FFF74BF8012004990871B3
:102E6000BAF1000F11D00498D0F82C805146049884
:102E7000FEF76FFE074647B9AAF101000499C86042
:102E800041460498FEF7CCFC07460FE077B9E07A9C
:102E900000F0100010B1042708E031E006F0020055
:102EA00020B1E07A00F0010000B1072747B906F031
:102EB000080008B146F020060498C06AE8612C6258
:102EC0004846FEF7CEFADFB9AE710020E871214620
:102ED0000498FEF7FDFF2861E07F0106A07F41EA2C
:102EE0000041607F41EA0020217F0843E860002024
:102EF000A860A8616862049828602868C088A880D3
:102F0000384646E72DE9FF4F83B0044615469A46FA
:102F1000DDF810B00020CAF800002046FFF7ECFEF4
:102F20000290029818B1029807B0BDE8F08FE079DE
:102F300008B1E079F8E7A07900F0010008B90720AE
:102F4000F2E7D4E90210401A00900098854200D9B7
:102F5000009DB3E02089C0F30800002876D12068E6
:102F60008078401EA16800EA512000F0FF09B9F105
:102F7000000F1FD1A06810B9206901900CE0606AB1
:102F800028B12046A168FEF785FE019004E0616942
:102F90002068FEF7CFFC01900198022802D202209F
:102FA000E071C1E70198401C10B90120E071BBE756
:102FB0000198606161692068FEF7AFFC064616B9AA
:102FC0000220E071B0E74E444FEA5528B8F1000FF7
:102FD00029D009EB080021688978884203D9206844
:102FE0008078A0EB09082168487843463246594664
:102FF000FEF7B7F910B10120E07195E7A07900F074
:10300000400068B1A069801B404509D2A169891BB5
:103010000BEB41204FF4007204F12801FEF7A6FBF0
:103020004FEA482740E0A069B04229D0A07900F0DB
:10303000400080B121684878012304F12801A26989
:10304000FEF7B8F918B10120E0716DE719E0A07939
:1030500020F04000A071216848780123324604F135
:103060002801FEF77EF958B10120E0715CE700000D
:10307000525261417272416160010020580100208A
:10308000A6612089C0F30800C0F50077AF4200D9DF
:103090002F462089C0F3080204F1280011183A468F
:1030A0005846FEF763FB00BFBB44A0683844A060ED
:1030B000DAF800003844CAF80000ED1B002D7FF458
:1030C00049AF002030E72DE9FF4F83B00446154695
:1030D0009B46049801900020CBF800002046FFF7A3
:1030E0000BFE0290029818B1029807B0BDE8F08F6D
:1030F000E07908B1E079F8E7A07900F0020008B9BA
:103100000720F2E7A0682844A168884200D2002581
:10311000C2E02089C0F3080000286FD120688078C1
:10312000401EA16800EA512000F0FF0ABAF1000F2A
:103130002CD1A06858B9D4F81080B8F1000F13D181
:1031400000212068FEF73BFD804620610CE0606AAC
:1031500028B12046A168FEF79DFD804604E0616924
:103160002068FEF72CFD8046B8F1000F00D196E0F4
:10317000B8F1010F02D10220E071B6E708F10100B9
:1031800010B90120E071B0E7C4F81480A07900F014
:10319000400078B121684878012304F12801A26930
:1031A000FEF708F910B10120E0719EE7A07920F048
:1031B0004000A07161692068FEF7AFFB064616B9B2
:1031C0000220E07191E756444FEA5529B9F1000F0A
:1031D0002BD00AEB090021688978884203D920683E
:1031E0008078A0EB0A09216848784B46324601995D
:1031F000FEF7E0F818B10120E07176E729E0A06958
:10320000801B48450ED2A069801B019A02EB402129
:103210004FF4007204F12800FEF7A8FAA07920F01C
:103220004000A0714FEA49272AE0A069B0420FD0C0
:10323000D4E9020188420BD2216848780123324642
:1032400004F12801FEF78DF810B10120E0714CE780
:10325000A6612089C0F30800C0F50077AF4200D90D
:103260002F462189C1F3080204F1280150183A467B
:103270000199FEF77BFAA07940F04000A07100BFF1
:10328000019838440190A0683844A060DBF8000041
:103290003844CBF80000ED1B002D7FF43AAF00BF9F
:1032A000D4E90201884201D9A068E060A07940F029
:1032B0002000A071002018E72DE9F04104462046C7
:1032C000FFF71AFD0746002F4CD1A07900F020002F
:1032D000002847D0A07900F0400078B121684878F4
:1032E000012304F12801A269FEF764F810B101205E
:1032F000BDE8F081A07920F04000A071E16920686C
:10330000FEF78EFA0746002F2CD1256AE87A40F0A6
:103310002000E872207B2877A089010A6977E0689D
:10332000010CA977E068010EE97728462169FEF7CC
:10333000DFFDFEF78EF80646AE75310AE975310CF1
:103340002976310E69760020A8740021E974A079ED
:1033500020F02000A0710120216808712068FEF78C
:1033600078FA07463846C3E770B505462846FFF7A2
:10337000A3FF044634B92846FFF7BEFC04460CB947
:1033800000202860204670BD2DE9FE4F04460D4602
:103390002046FFF7B1FC0290029810B10298BDE8F8
:1033A000FE8FE07908B1E079F9E7606A002871D012
:1033B000681C00283BD1D4F8248058F804AB4FF0A7
:1033C000020926693EB300BF00964FF0000B09F1D9
:1033D000020900BF01960BF1010B31462068FEF790
:1033E000A9FA0646012E02D80220E071D7E7701C28
:1033F00010B90120E071D2E70198401C8642E9D063
:10340000D14504D848F804BB009848F8040B20685C
:103410004069B042D8D8606AC0F80090D14503D85E
:103420000020C8F8000047E01120029044E0E06866
:10343000A84200D2E568A560002D3DD0691E204657
:10344000FEF728FC606161692068FEF766FA0746AE
:1034500017B90220E071A2E720688078401E691E3B
:1034600000EA512007442089C0F3080020B3A06976
:10347000B84221D0A07900F0400080B1216848789E
:10348000012304F12801A269FDF794FF18B101207E
:10349000E07184E711E0A07920F04000A07121687C
:1034A000487801233A4604F12801FDF75AFF10B18C
:1034B0000120E07173E7A761ABE0E068A84204D2A5
:1034C000A07900F0020000B9E568D4F808904FF048
:1034D0000008C4F80880002D67D020688078470273
:1034E000B9F1000F11D0681EB0FBF7F1A9F101008E
:1034F000B0FBF7F0814208D3A9F10100791E88439F
:10350000A060A0682D1A666912E026697EB90021C4
:103510002068FEF754FB0646012E02D10220E0711E
:103520003DE7701C10B90120E07138E72661666143
:10353000C6B323E0A07900F0020038B1314620681C
:10354000FEF73DFB064636B93D4619E03146206898
:10355000FEF7F0F90646701C10B90120E0711EE775
:10356000012E03D920684069B04202D80220E071E0
:1035700015E76661A0683844A060ED1BBD42D9D84C
:1035800000BFA0682844A060C5F3080050B13146D0
:103590002068FEF7C2F98046B8F1000F03D102207F
:1035A000E071FCE601E008EB55282089C0F3080033
:1035B00020B3A069404521D0A07900F0400078B147
:1035C00021684878012304F12801A269FDF7F2FE81
:1035D00010B10120E071E2E6A07920F04000A07176
:1035E000216848780123424604F12801FDF7B9FE1D
:1035F00010B10120E071D2E6C4F81880D4E90201CC
:10360000884205D9A068E060A07940F02000A07150
:1036100000BF0298C3E673B584B0044614B909200C
:1036200006B070BD002205A903A8FFF79BF9054667
:10363000002D2FD1039820604FF40070FDF70BFF91
:1036400006460EB91120EBE7E661C4F818D0204613
:103650000599FFF7D4F805463046FDF702FFB5B9E6
:10366000606958B16069C07A00F0100028B16169E2
:103670000398FEF72DFCA06000E005253DB90398F6
:10368000C088A08000212046FEF71DFB0546042DC2
:1036900000D105250DB1002020602846C0E770B597
:1036A00004462046FFF728FB05460DB900202060A0
:1036B000284670BDFEB504460F462046FFF71CFBAA
:1036C0000546002D2DD12FB900212046FEF7FBFA2B
:1036D000054626E04FF40070FDF7BDFE06460EB924
:1036E0001120FEBDE661C4F818D000212046FEF787
:1036F000A1FD0546042D02D10020206100256DB9F1
:1037000039462046FEF7C7FE00212046FEF72AFB79
:103710000546042D02D10020206100253046FDF72A
:10372000A0FE2846DDE773B58CB00E4600220CA93A
:1037300003A8FFF717F90546EDB94FF40070FDF740
:103740008AFE044614B911200EB070BD0A94CDF85B
:1037500024D003A80C99FFF752F8054645B90898FC
:1037600028B12EB1314603A8FEF795FE00E00625EC
:103770002046FDF776FE2846E6E72DE9F74F82B0B2
:103780008A46002202A90498FFF7ECF801900498F9
:103790000468019800286DD1D4E90410801E81428C
:1037A00003D82069CAF8000064E094F800B000264D
:1037B000BBF1010F1CD1022700BF39462046FEF79E
:1037C000B9F8804608F1010010B9012001900EE01F
:1037D000B8F1010F02D10220019008E0B8F1000F0A
:1037E00000D1761C781C074661698842E5D33AE02F
:1037F0006769206A00904FF00009002500BFB9F109
:10380000000F0ED10098421C014620460092FEF7A0
:1038100007F80190019800B124E004F130054FF45D
:103820000079BBF1020F09D12878697840EA0120BC
:1038300000B9761CAD1CA9F1020910E0E878000679
:10384000A97840EA0140697840EA012029780843D4
:1038500020F0704000B9761C2D1DA9F10409781ED6
:103860000700CCD100BF2661607940F00100607193
:10387000CAF80060019805B0BDE8F08F70B5044645
:103880002046FFF739FA054645B9E07908B1E579F0
:1038900004E0A07900F0020000B90725002D47D10F
:1038A000D4E90210884241D9A068E060A07940F0D4
:1038B0002000A071A06838B921692068FEF749F995
:1038C0000546002020611DE061692068FEF732F89E
:1038D00006460025701C00B90125012E00D10225E5
:1038E00085B920684069B0420CD96FF070426169B7
:1038F0002068FEF793F8054625B931462068FEF7A3
:1039000028F9054695B9A07900F0400070B121680A
:103910004878012304F12801A269FDF74BFD08B1A5
:10392000012503E0A07920F04000A07105B1E57108
:10393000284670BDF1B596B0012216A90DA8FFF773
:1039400011F80446002C54D14FF40070FDF783FDAC
:10395000074617B9112017B0F0BD149701A81390AE
:103960000DA81699FEF74BFF044600BF002C3DD171
:10397000129E0EB9062404E0F07A00F0010000B1B6
:10398000072431460D98FEF7A3FA0546ECB9F07A04
:1039900000F01000C8B1022D01D2022415E024224B
:1039A0000DA904A8FDF7E2FE0695022104A8FEF782
:1039B0008AF904464CB9002104A8FEF73BFC0446F2
:1039C00004B90724042C00D100247CB90DA8FEF70B
:1039D0002DFD044654B925B129460D98FEF7B9F8D6
:1039E00004461CB90D98FDF734FF04463846FDF730
:1039F00038FD2046AFE72DE9F14F8CB0FDF729FDEA
:103A0000064601220CA903A8FEF7ACFF0546002DCF
:103A10007BD14FF40070FDF71EFD8046B8F1000F1A
:103A200003D111200DB0BDE8F08FCDF82880CDF87E
:103A300024D003A80C99FEF7E2FE054605B9082537
:103A400000BF042D7AD100210398FEF7B8F807468D
:103A5000002507B90725012F00D10225781C00B9E0
:103A600001251DB90398FDF7B5FE0546002D5BD174
:103A700039460398FDF751FF8246039800F1300460
:103A80004FF4007200212046FDF77DFE0B2220211D
:103A90002046FDF778FE2E2020701020E072A675DB
:103AA000310AE175310C2176310E617639462046B6
:103AB000FEF71EFA2022214604F12000FDF756FEF3
:103AC0002E2084F82100DDF814B003980078032834
:103AD00004D10398406A584500D1AB46594604F1D9
:103AE0002000FEF705FA039890F8029018E003987A
:103AF000C0F82CA00AF1010A01200399087103986B
:103B0000FDF768FE05460DB10DE030E04FF40072A0
:103B100000212046FDF737FEA9F1010000F0FF0962
:103B2000B9F1000FE3D100BF1DB903A8FEF7E4FB14
:103B3000054625B139460398FEF70BF814E0089CBA
:103B40001020E072A675310AE175310C2176310E34
:103B5000617639462046FEF7CBF9012003990871BA
:103B60000398FDF776FE05464046FDF77AFC2846A9
:103B700058E72DE9F7418DB08846144601220DA97A
:103B800004A8FEF7EFFE07464FBB4FF40070FDF7A9
:103B900062FC06461EB9112010B0BDE8F0810B96FC
:103BA00001A80A9004A80D99FEF729FE07463046A1
:103BB000FDF757FC00BF97B9099D0DB906270EE028
:103BC00004F0270408EA0400E97AA1430843E872F4
:103BD0000120049908710498FDF73BFE074638461A
:103BE000DAE7F3B58DB00D4601220DA904A8FEF762
:103BF000B9FE074657BB4FF40070FDF72CFC064694
:103C000016B911200FB0F0BD0B9601A80A9004A8B8
:103C10000D99FEF7F4FD07463046FDF722FC00BF84
:103C2000A7B9099C0CB9062710E0A879A075E88807
:103C30000112E17528792076A888011261760120A9
:103C4000049908710498FDF704FE07463846D9E741
:103C50002DE9F3419CB001221CA913A8FEF782FEB6
:103C60000446002C78D113980A904FF40070FDF7A9
:103C7000F2FB07461FB911201EB0BDE8F0811A976C
:103C800001A8199013A81C99FEF7B9FD044600BFBE
:103C9000002C75D1189808B9042471E0189800F127
:103CA0000B01152204A8FDF761FD242213A90AA81F
:103CB000FDF75CFD1DA8FEF7EAFD002805DB0AA85C
:103CC0001D99FEF79CFD044600E00B2404B908246E
:103CD000042C55D10AA8FEF70FFB0446002C4FD147
:103CE0000F9D13220DF1120105F10D00FDF73EFDB0
:103CF0009DF8100040F02000E8720120139908712F
:103D00000C991598884231D0E87A00F0100068B319
:103D100029461398FEF7DCF8804641461398FDF7D4
:103D2000FCFD06460EB9022420E031461398FDF74B
:103D300077FD0446139800F15005BCB968782E2829
:103D400014D113980078032807D113990C98496A65
:103D5000884202D1002001E015E00C980646314669
:103D60002846FEF7C5F801201399087144B913A835
:103D7000FEF75CFB04461CB91398FDF76AFD044688
:103D80003846FDF76EFB204676E72DE9F74189B00E
:103D90000D469046002209A96846FEF7E3FD044659
:103DA00024BB1DB30020029000216846FDF78BFF65
:103DB0000446DCB901216846FEF73CFA044684B9A2
:103DC0000B2228460599FDF7D1FC0B2700BF0020E8
:103DD000E85507B904E0781E0746285C2028F6D08D
:103DE00000BF042C02D100202870002444BBB8F18D
:103DF000000F25D0009A1046D169FDF711FD044649
:103E0000F4B900980078032801D1432000E027206E
:103E10000646009830303044C078010600983030B3
:103E20003044807841EA0041009830303044407896
:103E300041EA002000993031895D0843C8F800004C
:103E400020460CB0BDE8F0812DE9F14F8CB0012285
:103E50000CA903A8FEF786FD8146B9F1000F03D037
:103E600048460DB0BDE8F08F00208DF80000002717
:103E700000E07F1C0C98C05D0028FAD100E07F1E96
:103E800027B1781E0C99085C2028F8D0002F5ED04E
:103E90000026B04600BF3046761C0C990C5C812C85
:103EA00020DBE0B2FE281DDCB8F10A0F18D2BE42BA
:103EB00016D20C98805D402803DB0C98805D7E282C
:103EC00007DD0C98805D80280ADB0C98805DFE2859
:103ED00006DC3046761C0C99085C40EA042000E0C1
:103EE000002084B20121204606F052FC834606F0F1
:103EF00089FC8246002106F04BFC04465CB1214659
:103F0000FEA0FDF75DFC30B9FF2C01DD0A2000E0CA
:103F10000B20404501D80620A3E7FF2C05DD221227
:103F2000404608F101080DF80020E2B2404608F1D1
:103F300001080DF80020BE42ADD305E02022404626
:103F400008F101080DF80020B8F10B0FF6D300209E
:103F50000590002103A8FDF7B6FE8146B9F1000FD8
:103F60005BD1012103A8FEF765F98146B9F1000F85
:103F700021D19DF8000098B10B2269460898FDF701
:103F8000F5FBFDF766FA054608998D75290A08982C
:103F9000C175290C08980176290E0898417602E02F
:103FA000E520089908700120039908710398FDF72E
:103FB00050FC814631E0B9F1040F2ED14FF00009D9
:103FC0009DF8000048B3012103A8FDF753FF814687
:103FD000B9F1000F21D1202200210898FDF7D3FB71
:103FE0000B2269460898FDF7C1FB08200899C872A2
:103FF000FDF72FFA054608998D75290A0898C175AD
:10400000290C08980176290E089841760120039919
:1040100008710398FDF71DFC8146484621E72DE90C
:10402000F74F90B0914610A8FEF731FC0F900F9813
:10403000002803DA0B2013B0BDE8F08F1198012897
:1040400001DD1320F7E7A9F1010000EA090008B13A
:104050001320F0E7AD490F9851F820B0BBF1000FE5
:1040600001D10C20E7E700208BF800000F98C0B2C8
:104070000C9000200B900C98FDF758F901900198D6
:1040800000F0010008B10320D5E7019800F004001A
:1040900008B10A20CFE700BF04AA01210C98FDF760
:1040A000A8F910B90498802801D20120C3E711981B
:1040B00008B1002000E03F2080460498A0EB0800F3
:1040C0000490B9F1000F13D14FF4FA610498B0FBDA
:1040D000F1F00A904FF0000A01E00AF1010A8C4861
:1040E00030F81A100A988142F7D88A4830F81A90A6
:1040F0004FEA5929B9F1000F01D14FF00109B9F187
:10410000800F01D94FF080090498B0FBF9F7012521
:1041100040F6F670874200D302254FF6F6708742CC
:1041200000D30325032D0AD1082000EB870000F2FD
:10413000FF10460A202003900020029011E0012D7C
:1041400005D107EB4700401C4008C01C01E0780087
:10415000001D064606F2FF10460A012003902020AB
:1041600002900398404407900798304406900299C3
:1041700006980844059005984844A0EB0800049967
:10418000884201D90E2056E709AA03210C98FDF7B1
:1041900030F928B9099818B10998B0F5004F01D93C
:1041A00001200990099905980844401E491E88433A
:1041B000099009990598081A0990032D08D10999C1
:1041C000039808440390099907980844079001E070
:1041D00009980644DDE90301081A811B0298081AB0
:1041E000B0FBF9F7022D03D140F6F670874205D3F4
:1041F000032D05D14FF6F670874201D20E201AE743
:10420000032D02D10C200D9010E0012D06D1049851
:10421000B0F5803F02D201200D9007E00498B0F580
:10422000803F01D2042000E006200D9000BF1198CD
:1042300010B1F0200E9044E04FF4007200210BF119
:104240003000FDF7A0FA0BF5F77401206070A07044
:104250000020E0700D982071FE20607104984044A9
:104260003F21B0FBF1F0FF21B0FBF1F009903F21BD
:10427000099841EA9000A0710998E0713F202072EE
:1042800000216172A172E172049820730498010AFE
:1042900061730498010CA1730498010EE173552118
:1042A0008BF82E12AA218BF82F12012300220BF17A
:1042B00030010C98FDF77EF808B10120BBE6F8202C
:1042C0000E900BF130044FF4007200212046FDF7F0
:1042D0005AFA0B2210A12046FDF748FA4FF4007A53
:1042E00084F80BA04FEA1A21217384F80D900398EB
:1042F000A0730398010AE173012013E0222A2B2CFA
:104300002E3A3B3C3D3E3F5B5D7C7F0058010020E8
:1043100068ED00087EED0008EBFE904D53444F53CE
:10432000352E30002074032D01D1002001E04FF420
:104330000070824684F811A04FEA1A21A1740498F3
:10434000B0F5803F05D20498E0740498010A217505
:1043500010E0049884F820000498C0F3072121207D
:1043600001550498C0F30741222001550498010E1D
:10437000232001550E9860753F202076002161763C
:10438000FF20A076E17684F81C804FEA182161773F
:104390004FEA1841A1774FEA1861E177FDF759F824
:1043A0000990032D3ED1099884F843000998C0F381
:1043B0000721442001550998C0F3074145200155C4
:1043C0000998010E4620015584F82460C6F30721A0
:1043D00025200155C6F3074126200155310E27201F
:1043E0000155022084F82C0000212D2001552E209B
:1043F00001552F200155012084F83000312001554E
:10440000062084F8320033200155802084F84000D3
:10441000292084F842001322FEA104F14700FDF791
:10442000A5F91FE0099884F827000998C0F307212F
:10443000282001550998C0F3074129200155099802
:10444000010E2A200155A675310AE175802084F8F5
:104450002400292084F826001322F3A104F12B0064
:10446000FDF784F9552084F8FE01AA2140F2FF10DF
:1044700001550123424621460C98FCF79BFF08B1E9
:104480000120D8E5032D06D1012308F106022146BB
:104490000C98FCF78FFF079808904FF0000A61E036
:1044A0004FF4007200212046FDF76DF90E98099037
:1044B000032D14D0012D01D1E04801E06FF0FF0081
:1044C000099908430990099820700998000A6070BA
:1044D0000998000CA0700998000EE07019E0099886
:1044E00060F0FF000990099820700998000A607038
:1044F0000998000CA0700998000EE070FF20207150
:10450000FF216171A171E17120726172A1720F21AD
:10451000E1720898411C02460123089121460C983B
:10452000FCF748FF08B1012085E54FF40072002137
:104530002046FDF728F9012009900EE00898411C5B
:1045400002460123089121460C98FCF733FF08B17D
:10455000012070E50998401C09900998B042EDD3FC
:104560000AF1010ABAF1000F9AD0032D01D1484691
:1045700000E00298824600BF0898411C02460123D1
:10458000089121460C98FCF715FF08B1012052E56F
:10459000AAF101005FEA000AEED1032D46D15220B4
:1045A000207060706120A0704120E070722084F85B
:1045B000E401722140F2E51001554121401C0155F2
:1045C0006121401C0155781E84F8E801C0F30721E1
:1045D00040F2E9100155781EC0F307414FF4F57021
:1045E0000155781E010E40F2EB100155022084F8AF
:1045F000EC01002140F2ED100155401C0155401C1A
:104600000155552084F8FE01AA2140F2FF10015502
:10461000012308F1010221460C98FCF7CBFE01238F
:1046200008F1070221460C98FCF7C4FE002211464F
:104630000C98FCF7DEFE08B10120FCE40020FAE44F
:104640002DE9FC4707468846914600243E4613E084
:104650006B46012201A94846FEF754FC0098012848
:1046600000D00DE09DF8045000BF06F8015B641C0B
:104670000A2D00D104E000BFA8F10100A042E7DC50
:1046800000BF0020307014B13846BDE8FC87002020
:10469000FBE7F8B504460E4600BF6568002D00DA5A
:1046A000F8BD28466D1C04F10C010E543D2D0CDBA9
:1046B0006B462A462068FEF706FD0098A84201D105
:1046C000002001E04FF0FF3005466560A068401C07
:1046D000A06000BFE4E730B595B004460D460295F2
:1046E000002003900490214602A8FFF7D2FF039810
:1046F00000280DDB01AB05A9DDE90202FEF7E3FCB2
:1047000030B901990398884202D1049815B030BDA0
:104710004FF0FF30FAE730B595B004460D460295EC
:1047200000200390049004E014F8011B02A8FFF796
:10473000B0FF20780028F7D1039800280DDB01ABEB
:1047400005A9DDE90202FEF7BEFC30B90199039824
:10475000884202D1049815B030BD4FF0FF30FAE71F
:104760000FB42DE9F04F9BB02498019000200290E7
:10477000039026A81A9000BF259810F8014B2590A9
:1047800004B924E1252C04D0214601A8FFF781FFBC
:10479000F2E7002006468146259810F8014B259047
:1047A000302C05D10126259810F8014B259006E004
:1047B0002D2C04D10226259810F8014B259009E0F4
:1047C00009EB890004EB4000A0F13009259810F8AE
:1047D000014B2590302C01DB392CF1DD6C2C01D004
:1047E0004C2C05D146F00406259810F8014B259075
:1047F00004B9ECE02546612D04DB7A2D02DCA5F13D
:104800002000C5B24F2D60D01DDC422D5AD0432D63
:104810004FD015E04E4F204E414D452020202046E0
:1048200041543332202020004E4F204E414D452030
:1048300020202046415420202020200000FFFF009F
:10484000442D4CD144E0532D04D0552D41D0582D4A
:1048500045D141E01A9850F804BB1A904FF0000877
:1048600001E008F101081BF808000028F9D106F062
:10487000020048B903E0202101A8FFF70AFF4046E3
:1048800008F101084845F6D304E01BF8011B01A814
:10489000FFF7FFFE9BF800000028F6D103E020217F
:1048A00001A8FFF7F6FE404608F101084845F6D397
:1048B00062E71A9810F8042BD1B21A9001A8FFF7FA
:1048C000E8FE59E7022019900EE0082019900BE04D
:1048D00000BF0A20199007E01020199004E021463B
:1048E00001A8FFF7D6FE47E700BF06F0040028B195
:1048F0001A9800681A99091D1A910CE0442D05D1E7
:104900001A9800681A99091D1A9104E01A9800680B
:104910001A99091D1A918246442D06D10AF00040C9
:1049200018B1CAF1000A46F00806002700BF19981E
:10493000BAFBF0F100FB11A0C5B21998BAFBF0FA6E
:10494000092D06DD782C01D1272000E0072028441E
:10495000C5B205F13000C2B238467F1C14A90A5412
:10496000BAF1000F01D0102FE1D306F0080020B1FA
:104970002D2238467F1C14A90A54B84606F00100BF
:1049800008B1302000E02020054603E0294601A8B8
:10499000FFF77FFE06F0020020B9404608F101084B
:1049A0004845F3D300BF781E074614AA115C01A83E
:1049B000FFF76FFE002FF6D103E0294601A8FFF7AD
:1049C00068FE404608F101084845F6D3D4E600BF2A
:1049D00000201A900298002810DB18AB04A9DDE92A
:1049E0000102FEF770FB48B918990298884205D178
:1049F00003981BB0BDE8F00F5DF814FB4FF0FF30DB
:104A0000F7E700003EB504466B46062201A92046A2
:104A1000FEF778FA05460DB101203EBD9DF8040071
:104A2000472817D19DF80500492813D19DF80600A5
:104A300046280FD19DF8070038280BD19DF80800B3
:104A4000372803D09DF80800392803D19DF80900C4
:104A5000612801D00220E0E70020DEE710B5014622
:104A60000878C208487883088878C40804EB4310A3
:104A700000EBC22080B210BD2DE9FC4180460E46FD
:104A80001746002414E06B46032201A94046FEF7B6
:104A900039FA054615B10120BDE8FC8101A8FFF7F0
:104AA000DDFF06F1100101EB44010880601C84B2B7
:104AB000BC42E8DB0020EFE7F8B505460C466B4644
:104AC000072221462846FEF71DFA06460EB10120B0
:104AD000F8BD207900F0800078B1207900F007015E
:104AE00002208840A4F81004B4F810242146284677
:104AF000FFF7C2FF08B10120EAE70020E8E701461E
:104B0000002000BF0BE001F1100202EB400213880D
:104B100001F5047202EB40021380421C90B2FF28A0
:104B2000F1DD70470146002000BF0BE001F5047283
:104B300002EB4002138801F1100202EB40021380E5
:104B4000421C90B2FF28F1DD704770B504460D4657
:104B500004F21444206843F6F442002102F05DFCA4
:104B6000206800F54050C0F8D85C681C216801F549
:104B70004051C1F8D40C0120A840216801F54051F2
:104B8000C1F8E40C0120A840401C216801F5405107
:104B9000C1F8E80C0120A840801C216801F54051B3
:104BA000C1F8DC0C0120A8404100206800F540500D
:104BB000C0F8E01C0121206800F54050C0F8D01C6E
:104BC0000221206800F54050C0F8CC1C206843F258
:104BD00002110144A4F2144400F54050C0F8BC1C7A
:104BE00070BD2DE9FC4105460E4617466B46012275
:104BF00001A92846FEF786F99DF80400F0B1B6B188
:104C00009DF80400B8420ADDAC689DF80400211844
:104C10002846FEF7B9FB9DF80400BDE8FC816B4611
:104C20009DF8042031462846FEF76CF906E0AC6892
:104C30009DF8040021182846FEF7A6FB9DF8040005
:104C4000EBE7FEB507460C4615461E4601AB0122B2
:104C500002A93846FEF756F99DF80800012806D04B
:104C6000F92811D0FE2804D0FF2838D100E000BF79
:104C700000BF00BF4FF4807200213846FFF7B1FF3C
:104C80000028F7DC0020FEBD042269463846FFF705
:104C9000A8FF042801D00120F5E79DF801009DF848
:104CA000021040EA0120A4F812049DF80000C0F3AD
:104CB000820030709DF8000000F0010010B19DF8F6
:104CC0000300286001AB012202A93846FEF71AF959
:104CD0009DF8080008B10120D5E70020D3E70120A6
:104CE000D1E72DE9F04782460C46D4F8140400F5CC
:104CF0004050D0F8D00C70B10021D4F8140400F565
:104D00004050C0F8D01CD4F8140400F54050D0F83E
:104D1000E40CBDE8F087D4F8140400F54050D0F856
:104D2000C01CD4F8140400F54050D0F8D40C01EBAA
:104D30000009D4F8140400F54050D0F8C40C4845DC
:104D40005FDCD4F8140400F54050D0F8C80C10B162
:104D50004FF0FF30DDE704F21444216843F6CC4005
:104D60004058801E085C0870216843F6CC404058CB
:104D7000401E085C48702068A4F21444811C4FF463
:104D800096725046FFF72DFF070006D10121D4F897
:104D9000140400F54050C0F8C81C002F02DA4FF090
:104DA000FF30B6E7B81C04F21444216801F5405105
:104DB000C1F8CC0C206800F54050D0F8C01C206829
:104DC00000F54050D0F8C40C081A1030216801F5E5
:104DD0004051C1F8C00CB81CC100206800F540501B
:104DE000C0F8C41C206800F54050D0F8C01C2068F2
:104DF000A4F2144400F54050D0F8D40C01EB0009A3
:104E000000BF4FEAE908D4F8140400F54050D0F888
:104E1000C00CC510454503D1D4F81404465D19E013
:104E2000681C404508D1D4F81404415D0246681C52
:104E3000105C41EA00260DE0D4F81404415D0246FE
:104E4000681C105C41EA0021D4F81424A81C105CF2
:104E500041EA004604F21444206800F5405090F8FE
:104E6000C00C00F0070146FA01F0216801F540513D
:104E7000D1F8D41CFA4A32F8111000EA0106206871
:104E800000F54050D0F8C01C206800F54050D0F824
:104E9000D40C01442068A4F2144400F54050C0F83A
:104EA000C01C304635E72DE9F04180460C469DE1B7
:104EB000D4F8140400F54050D0F8E40CA8427DD199
:104EC000D4F8140400F54050D0F8E40CB0F5805F3D
:104ED00003DB4FF0FF30BDE8F081D4F8141401F586
:104EE00081704FF40052002102F097FA002606E08C
:104EF000D4F8141442F2021211448E55761CD4F8E0
:104F0000140400F54050D0F8E40CB042F0DC04F298
:104F10001444206800F54050D0F8D80C401C21689B
:104F200001F54051C1F8D40C206800F54050D0F88C
:104F3000E40C4100206800F54050C0F8E01C2068F7
:104F400000F54050D0F8E40C801C216801F5405178
:104F5000C1F8DC0C206843F202110144A4F21444AD
:104F600000F54050C0F8BC1C00BF21464046FFF78A
:104F7000B8FED4F8141401F54051C1F8EC0CD4F883
:104F8000140400F54050D0F8EC1CD4F8140400F5DB
:104F90004050D0F8E40C8142E7D0D4F8140400F576
:104FA0004050D0F8EC1CD4F8140400F54050C0F880
:104FB000F01CD4F8140400F5405000E002E0D0F8F2
:104FC000EC0C88E7D4F8140400F54050D0F8E80C55
:104FD000A84202D16FF001007DE72F46D4F81404F7
:104FE00000F54050D0F8DC0CA8421EDC04F214445A
:104FF000206800F5405090F8EC2C206800F54050F7
:10500000D0F8BC3C206800F54050D0F8BC1C491CCE
:10501000206800F54050C0F8BC1C1A702068A4F24B
:10502000144400F54050D0F8F05C3AE004F2144427
:10503000206842F202110844425D206800F54050A9
:10504000D0F8BC3C206800F54050D0F8BC0C401CA7
:10505000216801F54051C1F8BC0C1A702068A4F217
:10506000144400F5817030F91500A84201D128469A
:1050700031E7D4F8140400F54050D0F8BC0CD4F853
:10508000141443F202121144401A40F6B831884217
:1050900001D328461FE7D4F8140400F5817030F9D5
:1050A0001550D4F8140400F54050D0F8E40CA84290
:1050B000BCDD04F21444206842F202110844425D4F
:1050C000206800F54050C0F8EC2C206800F54050F6
:1050D000D0F8BC3C206800F54050D0F8BC0C411C16
:1050E000206800F54050C0F8BC1C1A702068A4F27B
:1050F000144400F54050D0F8DC0C0546B0F5805F54
:1051000052DA04F21444206800F54050B0F8F00C74
:1051100001B2206800F5817020F81510206800F5B4
:10512000405090F8EC0C216842F2021211444855AC
:10513000206800F54050D0F8DC0C401C216801F5D7
:105140004051C1F8DC0C206800F54050D0F8DC1C60
:105150002068A4F2144400F54050D0F8E00C8142DD
:1051600022DBD4F8140400F54050D0F8E00CB0F580
:10517000805F19DAD4F8140400F54050D0F8E00C40
:105180004100D4F8140400F54050C0F8E01CD4F8F5
:10519000140400F54050D0F8D40C401CD4F814147A
:1051A00001F54051C1F8D40CD4F8140400F5405076
:1051B000C0F8F07CD4F8140400F54050D0F8BC0CD2
:1051C000D4F8141443F20212114488420ED9D4F8D0
:1051D000140400F54050D0F8BC0C401ED4F8141450
:1051E00001F54051C1F8BC0C007874E621464046F8
:1051F000FFF777FD051EBFF65BAE28466BE62DE98F
:10520000FF4F8BB00C469A46DDF860B0B4F80B0047
:105210000490B4F80D0003900D9904980844401EC2
:105220000590617904F1100000EB410000880190C5
:1052300004F1100000900AAB012209A90B98FDF7B8
:1052400061FE9DF824102046FFF77FFCE07B00F014
:10525000400006900020089056460790D8E00000D5
:1052600094ED000800277D1EDDF8348082E0D4F83C
:10527000140400F54050D0F8BC0CD4F8141443F2D8
:105280000212114488420FD9D4F8140400F540509A
:10529000D0F8BC0C401ED4F8141401F54051C1F8EC
:1052A000BC0C90F8009004E021460B98FFF7FBFD42
:1052B000814609F1020018B900200FB0BDE8F08F57
:1052C000B9F1000F03DBB4F81004484501DC0120FC
:1052D000F3E7A94504D10598804501DC7F1C46E031
:1052E0003FB35D4514D0DDF800E03EF8153007F11E
:1052F000010E1FFA8EF2B1B2A8EB070EAEF1010E4D
:105300001FFA8EF0DFF800E4DEF80CC0E0470EE094
:10531000199802280BD17B1C9AB2B1B2A8EB0703F3
:105320005B1E98B2F84BD3F80CC0019BE0470027F6
:105330001DE0002D1BDB5D450ED0DDF800C03CF804
:105340001520B1B2A8F1010C1FFA8CF0DFF8B8C338
:10535000DCF8043098470AE01998022807D1B1B266
:10536000A8F1010290B2E84A5368019A98474D4665
:1053700008F10108059880457FF779AF5D4502D1B6
:10538000199802282CD15D4504D0009830F81500FA
:10539000029001E001980290A7B1DDF808E01FFA41
:1053A0008EF307F1010E1FFA8EF2B1B2A8EB070ED1
:1053B000AEF1010E1FFA8EF0DFF84CE3DEF80CC000
:1053C000E0470DE0DDF808C01FFA8CF2B1B2DDF85D
:1053D00014C01FFA8CF0DFF830C3DCF804309847B3
:1053E000069888B1C9490798085C0644A6EB0A01EB
:1053F0000398814209DB0798401C0790C44907982D
:10540000085C00EB0A0600E0761C0898401C089037
:10541000039908988842FFF625AF00204DE70FB4A6
:105420002DE9F84F074688461446617904F11000CB
:1054300000EB4100B0F800B0BDF8380010B1BDF885
:105440003A0018B9BDE8F80F5DF814FBB4F809008C
:10545000BDF8361088422ADDBDF8340038441FFA02
:1054600080F9BDF8360040441FFA80FABDF83400D8
:105470003844BDF838100844401E85B2B4F809001D
:105480004044401E86B2A94511DAB2450FDAB5F59F
:10549000A07F0CDAB6F5A07F09DA9B48CDF800B002
:1054A00033462A465146D0F808C04846E047B4F88B
:1054B0000700BDF8341088422ADDBDF834003844B6
:1054C0001FFA80F9BDF8360040441FFA80FAB4F89C
:1054D00007003844401E85B2BDF836004044BDF890
:1054E0003A100844401E86B2A94511DAB2450FDAD7
:1054F000B5F5A07F0CDAB6F5A07F09DA8248CDF8C1
:1055000000B033462A465146D0F808C04846E04726
:10551000B4F80910B4F80D000844BDF83610BDF811
:105520003A201144884232DABDF8340038441FFA78
:1055300080F9B4F8090000EB0801B4F80D00084444
:10554000401E1FFA80FABDF834003844BDF8381008
:105550000844401E85B2BDF836004044BDF83A10FC
:105560000844401E86B2A94511DAB2450FDAB5F5F6
:10557000A07F0CDAB6F5A07F09DA6348CDF800B059
:1055800033462A465146D0F808C04846E047B4F8AA
:105590000710B4F80B000844BDF83410BDF83820EB
:1055A0001144884231DAB4F80700C119B4F80B008D
:1055B0000844401E1FFA80F9BDF8360040441FFA27
:1055C00080FABDF834003844BDF838100844401E55
:1055D00085B2BDF836004044BDF83A100844401E7C
:1055E00086B2A94511DAB2450FDAB5F5A07F0CDA1B
:1055F000B6F5A07F09DA4448CDF800B033462A4614
:105600005146D0F808C04846E04700BF1AE72DE9E8
:10561000F0438BB080460C4615461E464FF0FF30D7
:10562000049000BF0AAB012203A94046FDF76AFCC3
:1056300007461FB101200BB0BDE8F0839DF80C00B8
:1056400021287FD02C2802D03B286FD178E0B4F8F5
:105650000700ADF81800B4F80900ADF81A00B4F866
:105660000B00ADF81C00B4F80D00ADF81E000AAB3D
:105670000922E11D4046FDF745FC07460FB1012018
:10568000D9E7E07B00F0800088B12046FFF737FAC9
:10569000E07B00F00701022088401FFA80F94A46AB
:1056A00021464046FFF7E8F908B10120C3E79DF81D
:1056B000140002280BD1079800909DF820008DF867
:1056C0000400224631462846069BFFF7A8FE9DF8B7
:1056D00014000499CDE90010B4F80900304483B2F5
:1056E000B4F80700284482B221464046FFF787FD00
:1056F0001DE00AAB012209A94046FDF703FC9DF815
:10570000240038B914E01DE064980020B4ED0008CE
:10571000B8ED0008D8F808000A909DF824200A98EF
:1057200081184046FDF730FE08B101E015E0E0E7E2
:1057300000BF9DF8240008B101207CE700207AE733
:10574000022078E705AB04AA21464046FFF779FA24
:1057500007460FB101206EE701E001206BE700BFB3
:105760009DF80C003B287FF45DAF002063E700202C
:105770004B49087070472DE9F84F81460E46174691
:105780009846DDF828A00025002000904FF40A700C
:1057900002F0A7FD8346BBF1000F00D111254FF4A5
:1057A000836002F09EFD044604B9112543F6F440DF
:1057B00002F097FDC4F81404D4F8140400B91125BC
:1057C000002D5FD1012249465846FDF7DBFA054618
:1057D000002D54D15846FFF715F900B12725214671
:1057E0005846FFF769F900B127252088404502DCBB
:1057F0006088504501DD28250FE02188A8EB0100D5
:1058000000EBD07106EB61018EB26188AAEB01005A
:1058100000EBD07107EB61018FB2012020490870C5
:1058200027E03B46324621465846FFF7F0FE054644
:10583000E07B00F0800010B12046FFF773F9B4F868
:10584000120418B1B4F81204009001E00A2000908C
:1058500002E00A20FBF73DFD0098411E89B200914D
:1058600018B10F4800780028F3D1022D01D100258E
:1058700004E00B48007808B1002DD2D000BF584694
:10588000FDF772FD584602F032FDD4F8140402F020
:105890002EFD204602F02BFD2846BDE8F88F0000C3
:1058A0006201002008B50121142006F037FD012116
:1058B000374806F048FB4FF40040ADF800004820A0
:1058C0008DF803006946334806F06CFA2020ADF8E5
:1058D000000048208DF8030069462F4806F062FA60
:1058E0000120ADF8000028208DF803006946294802
:1058F00006F058FA08BD10B5044614B10120274936
:1059000008702648007868B32021234806F0DDFAA5
:1059100058B14FF400411F4806F0D7FA28B10121D1
:105920001C4806F0D2FA01281CD10A20FBF7D1FC52
:1059300000201A4908702021174806F0C6FA08B955
:10594000012010BD4FF40041124806F0BEFA08B91C
:105950000220F6E701210F4806F0B7FA012815D119
:105960000320EEE720210C4806F0AFFA01280DD104
:10597000C103084806F0A9FA012807D1012105480A
:1059800006F0A3FA10B90120044908700020D8E7F6
:1059900000023000000801400010014063010020B7
:1059A0004FF48071FD4A516149005161FC49086022
:1059B0008021516111618900116170474FF480713C
:1059C000F64A116149005161F54908608021516131
:1059D000116189001161704710B54FF08830F049AE
:1059E0000C390860091D08600020ED490860881521
:1059F000EA4908614000486140204861E9488088E0
:105A000048F68911884202D10220FBF73EFCE448A7
:105A1000001F006884B24020E0490861C0000861AE
:105A20004FF03330DE490C390860091D08604FF62D
:105A3000FF70DB490860204610BD10B504460B46D8
:105A40002046FFF7ADFF4FF48070D4490861400055
:105A50004861D34803608020486108618000086184
:105A600010BD10B504462046FFF79AFFFFF7B4FFBC
:105A700010BD00B5CB490889FFF792FF00BD4FF478
:105A80008071C64A116149005161C5490860802191
:105A90005161116189001161704730B5014601F013
:105AA0001F04C1F34513CA0AE50205EB431515446B
:105AB000A8B230BD00BF0100A0F10102D0B2FAD1FE
:105AC000704730B504460D46B648808849F24131EA
:105AD000884205D0B348808845F21031884240D1D1
